{
    "bits": "1b04864c",
    "chainwork": "00000000000000000000000000000000000000000000000006453ca8167dcf9a",
    "confirmations": 452815,
    "difficulty": 14484.1623612254,
    "hash": "0000000000013b8ab2cd513b0261a14096412195a72a0c4827d229dcc7e0f7af",
    "height": 12,
    "mediantime": 1293623406,
    "merkleroot": "2fda58e5959b0ee53c5253da9b9f3c0c739422ae04946966991cf55895287552",
    "nextblockhash": "000000000002a0a74129007b1481d498d0ff29725e9f403837d517683abac5e1",
    "nonce": 2478813466,
    "previousblockhash": "00000000000080b66c911bd5ba14a74260057311eaeb1982802f7010f1a9f090",
    "size": 3054,
    "strippedsize": 3054,
    "time": 1293625051,
    "tx": [
        {
            "blockhash": "0000000000013b8ab2cd513b0261a14096412195a72a0c4827d229dcc7e0f7af",
            "blocktime": 1293625051,
            "confirmations": 452815,
            "hash": "220ebc64e21abece964927322cba69180ed853bb187fbc6923bac7d010b9d87a",
            "hex": "0100000002c40297f730dd7b5a99567eb8d27b78758f607507c52292d02d4031895b52f2ff010000008b483045022100f7edfd4b0aac404e5bab4fd3889e0c6c41aa8d0e6fa122316f68eddd0a65013902205b09cc8b2d56e1cd1f7f2fafd60a129ed94504c4ac7bdc67b56fe67512658b3e014104732012cb962afa90d31b25d8fb0e32c94e513ab7a17805c14ca4c3423e18b4fb5d0e676841733cb83abaf975845c9f6f2a8097b7d04f4908b18368d6fc2d68ecffffffffca5065ff9617cbcba45eb23726df6498a9b9cafed4f54cbab9d227b0035ddefb000000008a473044022068010362a13c7f9919fa832b2dee4e788f61f6f5d344a7c2a0da6ae740605658022006d1af525b9a14a35c003b78b72bd59738cd676f845d1ff3fc25049e01003614014104732012cb962afa90d31b25d8fb0e32c94e513ab7a17805c14ca4c3423e18b4fb5d0e676841733cb83abaf975845c9f6f2a8097b7d04f4908b18368d6fc2d68ecffffffff01001ec4110200000043410469ab4181eceb28985b9b4e895c13fa5e68d85761b7eee311db5addef76fa8621865134a221bd01f28ec9999ee3e021e60766e9d1f3458c115fb28650605f11c9ac00000000",
            "locktime": 0,
            "size": 445,
            "time": 1293625051,
            "txid": "220ebc64e21abece964927322cba69180ed853bb187fbc6923bac7d010b9d87a",
            "version": 1,
            "vin": [
                {
                    "scriptSig": {
                        "asm": "3045022100f7edfd4b0aac404e5bab4fd3889e0c6c41aa8d0e6fa122316f68eddd0a65013902205b09cc8b2d56e1cd1f7f2fafd60a129ed94504c4ac7bdc67b56fe67512658b3e[ALL] 04732012cb962afa90d31b25d8fb0e32c94e513ab7a17805c14ca4c3423e18b4fb5d0e676841733cb83abaf975845c9f6f2a8097b7d04f4908b18368d6fc2d68ec",
                        "hex": "483045022100f7edfd4b0aac404e5bab4fd3889e0c6c41aa8d0e6fa122316f68eddd0a65013902205b09cc8b2d56e1cd1f7f2fafd60a129ed94504c4ac7bdc67b56fe67512658b3e014104732012cb962afa90d31b25d8fb0e32c94e513ab7a17805c14ca4c3423e18b4fb5d0e676841733cb83abaf975845c9f6f2a8097b7d04f4908b18368d6fc2d68ec"
                    },
                    "sequence": 4294967295,
                    "txid": "fff2525b8931402dd09222c50775608f75787bd2b87e56995a7bdd30f79702c4",
                    "vout": 1
                },
                {
                    "scriptSig": {
                        "asm": "3044022068010362a13c7f9919fa832b2dee4e788f61f6f5d344a7c2a0da6ae740605658022006d1af525b9a14a35c003b78b72bd59738cd676f845d1ff3fc25049e01003614[ALL] 04732012cb962afa90d31b25d8fb0e32c94e513ab7a17805c14ca4c3423e18b4fb5d0e676841733cb83abaf975845c9f6f2a8097b7d04f4908b18368d6fc2d68ec",
                        "hex": "473044022068010362a13c7f9919fa832b2dee4e788f61f6f5d344a7c2a0da6ae740605658022006d1af525b9a14a35c003b78b72bd59738cd676f845d1ff3fc25049e01003614014104732012cb962afa90d31b25d8fb0e32c94e513ab7a17805c14ca4c3423e18b4fb5d0e676841733cb83abaf975845c9f6f2a8097b7d04f4908b18368d6fc2d68ec"
                    },
                    "sequence": 4294967295,
                    "txid": "fbde5d03b027d2b9ba4cf5d4fecab9a99864df2637b25ea4cbcb1796ff6550ca",
                    "vout": 0
                }
            ],
            "vout": [
                {
                    "n": 0,
                    "scriptPubKey": {
                        "addresses": [
                            "145crWADs13RVdAQFz1PHxV8FuifFtPBGi"
                        ],
                        "asm": "0469ab4181eceb28985b9b4e895c13fa5e68d85761b7eee311db5addef76fa8621865134a221bd01f28ec9999ee3e021e60766e9d1f3458c115fb28650605f11c9 OP_CHECKSIG",
                        "hex": "410469ab4181eceb28985b9b4e895c13fa5e68d85761b7eee311db5addef76fa8621865134a221bd01f28ec9999ee3e021e60766e9d1f3458c115fb28650605f11c9ac",
                        "reqSigs": 1,
                        "type": "pubkey"
                    },
                    "value": 88.88
                }
            ],
            "vsize": 445
        }
    ],
    "version": 1,
    "versionHex": "00000001",
    "weight": 12216
}
