{
    "bits": "1908837f",
    "chainwork": "0000000000000000000000000000000000000000000325c0f3615cd98befb04c",
    "confirmations": 12125,
    "difficulty": 504472044.5762442,
    "hash": "000000000000000269defdc496e4e89f6c6d963ebfa6b0475674695a00ea467a",
    "height": 9468618,
    "mediantime": 1569089569,
    "merkleroot": "3fae498ceae2b1ffcd48de81e528a24baa9bc2a74479b9d0de82756760938ccd",
    "nTx": 2,
    "nextblockhash": "45024093fe54d7fce8e2821e123cd7df0691c017ffc3574d37fdd453cf9937c4",
    "nonce": 1378959673,
    "pow_algo": "sha256d",
    "pow_algo_id": 0,
    "pow_hash": "000000000000000269defdc496e4e89f6c6d963ebfa6b0475674695a00ea467a",
    "previousblockhash": "0000000000000002abf726664fe625291a156c3923678b59e517f9a78e6ad494",
    "size": 1581,
    "strippedsize": 1545,
    "time": 1569089637,
    "tx": [
        {
            "hash": "7d96c1ac57cb356c48440f2ed6773413df515d044b07d3eb6e1b1fe155755c38",
            "hex": "010000000001010000000000000000000000000000000000000000000000000000000000000000ffffffff4e04ca7a9000046568865d08fabe6d6d62fda7283c265259ab1262fd5001c55e39dcd2731f3867b9f9dbf87833dfbeed020000000000000030004cce162200000e2f4d696e696e672d44757463682f00000000020000000000000000266a24aa21a9ed7974edf9f6068fd603530cbc888e116dab735e0bf06300c2d30ff22c62599fb5460378270f0000001976a91446ad866b9c69c167c1023868bf3df5b16722af9088ac0120000000000000000000000000000000000000000000000000000000000000000000000000",
            "locktime": 0,
            "size": 246,
            "txid": "d8cee2ee73ab110500edf016467bc609b057b189f38c3839f554fcb305ae8a96",
            "version": 1,
            "vin": [
                {
                    "coinbase": "04ca7a9000046568865d08fabe6d6d62fda7283c265259ab1262fd5001c55e39dcd2731f3867b9f9dbf87833dfbeed020000000000000030004cce162200000e2f4d696e696e672d44757463682f",
                    "sequence": 0
                }
            ],
            "vout": [
                {
                    "n": 0,
                    "scriptPubKey": {
                        "asm": "OP_RETURN aa21a9ed7974edf9f6068fd603530cbc888e116dab735e0bf06300c2d30ff22c62599fb5",
                        "hex": "6a24aa21a9ed7974edf9f6068fd603530cbc888e116dab735e0bf06300c2d30ff22c62599fb5",
                        "type": "nulldata"
                    },
                    "value": 0.0
                },
                {
                    "n": 1,
                    "scriptPubKey": {
                        "addresses": [
                            "DBaoiRLgsjaecgK1255ntnuUpnyQtmgHw9"
                            ],
                            "asm": "OP_DUP OP_HASH160 46ad866b9c69c167c1023868bf3df5b16722af90 OP_EQUALVERIFY OP_CHECKSIG",
                            "hex": "76a91446ad866b9c69c167c1023868bf3df5b16722af9088ac",
                            "reqSigs": 1,
                            "type": "pubkeyhash"
                    },
                    "value": 650.86686022
                }
            ],
            "vsize": 219,
            "weight": 876
        },
        {
            "hash": "f3a08dc0b0fef60f822c0c56436214f58bbe637c80c6ece17c987467ee40b132",
            "hex": "0100000008e2d37fafa443a395fb638fb86066ff94c94a0208b11665aa1868f1c0c47b5c93000000006a47304402200b5ef024a2b53d2464d0cd37ca5096e8dcacfef7f068444e79744583389d1fb602204d598a64972aaf45156bece984b809c6e9828ec946dba68ef02ceb461dbb7f850121035ac64967a372275fd545195e896c7731da3b7e7276b68070cee3bdfb859bc987feffffffacb174295a19797c9b8889a3c6ccb26dd9e1c4d5e58381121207944100ebe8c4000000006a47304402203241ae4a92bf1b060bd750f731b461a835bfd9552e6a6c4f69c6d81de704d7b0022026fba12603dabab765bb0b968e7e626d493785acc613b84834538481ff5a0e0b0121035ac64967a372275fd545195e896c7731da3b7e7276b68070cee3bdfb859bc987feffffff0f3bb7ad0f32062c281abeb990bc546df61a4a2dcc8c9af21c58811303c99357000000006a4730440220093f89cfa7b29bae9623bb4eec2a760d578e252f7b57ed890fbc8d66fa6dc9ac0220073ed89fbf5d5c813e8814cbf5d1ec94407393e5c2240281a9af9dc9fcc5ce7d0121035ac64967a372275fd545195e896c7731da3b7e7276b68070cee3bdfb859bc987feffffff69461415f3300e10169bb54f0b1572520c424800fd80a96a9c25165f03bad610000000006a473044022027ec862e5aafb7efef8430b74dc576ada99cdafa004f5982782e8421da419efa022041857051b2a77f1d1510074e626a83b02bb08f4d3650c2ab93066834cdb63f120121035ac64967a372275fd545195e896c7731da3b7e7276b68070cee3bdfb859bc987feffffff4ac5d62fe5836f4fa0e933fa649989f360f8afe2de0ca2dfce70b1cf3253d6fe000000006a473044022073dabfe1e097318843d7de3463f12dc4f69f7a4bfd1d8f6da3a874f85b640f4b022047cb438f8db1b95935c22b8acd3a6a3bb270fb88d7efbed569e8cb9d566670c90121035ac64967a372275fd545195e896c7731da3b7e7276b68070cee3bdfb859bc987feffffff1610ecf6d7ec04a1c925aa2984dde16d5563e0c98dc502495d7959f5bbd239bc000000006a473044022040d700c62c83de3a12553778a7a83114862828082d50cbffc23ad7003e8a704402205fcadb08048e74ba140dd8b710a46dcc7dc6c471d40b64e78572f43df83dddae0121035ac64967a372275fd545195e896c7731da3b7e7276b68070cee3bdfb859bc987feffffff6af3992d8bb8a0eaf9afb8ac7014a1320151a334f8bf19dc4dd4876ac3d2fcf2000000006a47304402204f30681569f96080417019819b45fdc2dedbaf8d3f5a22e3406496e6bfd11a60022038aee4558c2448156ee2392b0068eb9788372a7c35b984168c4580aa31f9a76f0121035ac64967a372275fd545195e896c7731da3b7e7276b68070cee3bdfb859bc987feffffff24a8bf513eb32514308c05ceb963d6e300272d6973d16bd78b474df665aa0104000000006a473044022066100d84a3876453aa351a88f7b053a26ad9ad37da1b3a0f257bd653701bb77602205fc237c07ed412d2736f308248641b924267b55ffbff29837a747f4a624a07b20121035ac64967a372275fd545195e896c7731da3b7e7276b68070cee3bdfb859bc987feffffff02ecd41d9a050000001976a9145445ef184e02ddc4d2cd3b28b2e7e1e31559163f88ac453095a1730000001976a914c6e4f23ac020e22bb307b829e95d6d516d83ae9388acc67a9000",
            "locktime": 9468614,
            "size": 1254,
            "txid": "f3a08dc0b0fef60f822c0c56436214f58bbe637c80c6ece17c987467ee40b132",
            "version": 1,
            "vin": [
                {
                    "scriptSig": {
                        "asm": "304402200b5ef024a2b53d2464d0cd37ca5096e8dcacfef7f068444e79744583389d1fb602204d598a64972aaf45156bece984b809c6e9828ec946dba68ef02ceb461dbb7f85[ALL] 035ac64967a372275fd545195e896c7731da3b7e7276b68070cee3bdfb859bc987",
                        "hex": "47304402200b5ef024a2b53d2464d0cd37ca5096e8dcacfef7f068444e79744583389d1fb602204d598a64972aaf45156bece984b809c6e9828ec946dba68ef02ceb461dbb7f850121035ac64967a372275fd545195e896c7731da3b7e7276b68070cee3bdfb859bc987"
                    },
                    "sequence": 4294967294,
                    "txid": "935c7bc4c0f16818aa6516b108024ac994ff6660b88f63fb95a343a4af7fd3e2",
                    "vout": 0
                },
                {
                    "scriptSig": {
                        "asm": "304402203241ae4a92bf1b060bd750f731b461a835bfd9552e6a6c4f69c6d81de704d7b0022026fba12603dabab765bb0b968e7e626d493785acc613b84834538481ff5a0e0b[ALL] 035ac64967a372275fd545195e896c7731da3b7e7276b68070cee3bdfb859bc987",
                        "hex": "47304402203241ae4a92bf1b060bd750f731b461a835bfd9552e6a6c4f69c6d81de704d7b0022026fba12603dabab765bb0b968e7e626d493785acc613b84834538481ff5a0e0b0121035ac64967a372275fd545195e896c7731da3b7e7276b68070cee3bdfb859bc987"
                    },
                    "sequence": 4294967294,
                    "txid": "c4e8eb0041940712128183e5d5c4e1d96db2ccc6a389889b7c79195a2974b1ac",
                    "vout": 0
                },
                {
                    "scriptSig": {
                        "asm": "30440220093f89cfa7b29bae9623bb4eec2a760d578e252f7b57ed890fbc8d66fa6dc9ac0220073ed89fbf5d5c813e8814cbf5d1ec94407393e5c2240281a9af9dc9fcc5ce7d[ALL] 035ac64967a372275fd545195e896c7731da3b7e7276b68070cee3bdfb859bc987",
                        "hex": "4730440220093f89cfa7b29bae9623bb4eec2a760d578e252f7b57ed890fbc8d66fa6dc9ac0220073ed89fbf5d5c813e8814cbf5d1ec94407393e5c2240281a9af9dc9fcc5ce7d0121035ac64967a372275fd545195e896c7731da3b7e7276b68070cee3bdfb859bc987"
                    },
                    "sequence": 4294967294,
                    "txid": "5793c9031381581cf29a8ccc2d4a1af66d54bc90b9be1a282c06320fadb73b0f",
                    "vout": 0
                },
                {
                    "scriptSig": {
                        "asm": "3044022027ec862e5aafb7efef8430b74dc576ada99cdafa004f5982782e8421da419efa022041857051b2a77f1d1510074e626a83b02bb08f4d3650c2ab93066834cdb63f12[ALL] 035ac64967a372275fd545195e896c7731da3b7e7276b68070cee3bdfb859bc987",
                        "hex": "473044022027ec862e5aafb7efef8430b74dc576ada99cdafa004f5982782e8421da419efa022041857051b2a77f1d1510074e626a83b02bb08f4d3650c2ab93066834cdb63f120121035ac64967a372275fd545195e896c7731da3b7e7276b68070cee3bdfb859bc987"
                    },
                    "sequence": 4294967294,
                    "txid": "10d6ba035f16259c6aa980fd0048420c5272150b4fb59b16100e30f315144669",
                    "vout": 0
                },
                {
                    "scriptSig": {
                        "asm": "3044022073dabfe1e097318843d7de3463f12dc4f69f7a4bfd1d8f6da3a874f85b640f4b022047cb438f8db1b95935c22b8acd3a6a3bb270fb88d7efbed569e8cb9d566670c9[ALL] 035ac64967a372275fd545195e896c7731da3b7e7276b68070cee3bdfb859bc987",
                        "hex": "473044022073dabfe1e097318843d7de3463f12dc4f69f7a4bfd1d8f6da3a874f85b640f4b022047cb438f8db1b95935c22b8acd3a6a3bb270fb88d7efbed569e8cb9d566670c90121035ac64967a372275fd545195e896c7731da3b7e7276b68070cee3bdfb859bc987"
                    },
                    "sequence": 4294967294,
                    "txid": "fed65332cfb170cedfa20cdee2aff860f3899964fa33e9a04f6f83e52fd6c54a",
                    "vout": 0
                },
                {
                    "scriptSig": {
                        "asm": "3044022040d700c62c83de3a12553778a7a83114862828082d50cbffc23ad7003e8a704402205fcadb08048e74ba140dd8b710a46dcc7dc6c471d40b64e78572f43df83dddae[ALL] 035ac64967a372275fd545195e896c7731da3b7e7276b68070cee3bdfb859bc987",
                        "hex": "473044022040d700c62c83de3a12553778a7a83114862828082d50cbffc23ad7003e8a704402205fcadb08048e74ba140dd8b710a46dcc7dc6c471d40b64e78572f43df83dddae0121035ac64967a372275fd545195e896c7731da3b7e7276b68070cee3bdfb859bc987"
                    },
                    "sequence": 4294967294,
                    "txid": "bc39d2bbf559795d4902c58dc9e063556de1dd8429aa25c9a104ecd7f6ec1016",
                    "vout": 0
                },
                {
                    "scriptSig": {
                        "asm": "304402204f30681569f96080417019819b45fdc2dedbaf8d3f5a22e3406496e6bfd11a60022038aee4558c2448156ee2392b0068eb9788372a7c35b984168c4580aa31f9a76f[ALL] 035ac64967a372275fd545195e896c7731da3b7e7276b68070cee3bdfb859bc987",
                        "hex": "47304402204f30681569f96080417019819b45fdc2dedbaf8d3f5a22e3406496e6bfd11a60022038aee4558c2448156ee2392b0068eb9788372a7c35b984168c4580aa31f9a76f0121035ac64967a372275fd545195e896c7731da3b7e7276b68070cee3bdfb859bc987"
                    },
                    "sequence": 4294967294,
                    "txid": "f2fcd2c36a87d44ddc19bff834a3510132a11470acb8aff9eaa0b88b2d99f36a",
                    "vout": 0
                },
                {
                    "scriptSig": {
                        "asm": "3044022066100d84a3876453aa351a88f7b053a26ad9ad37da1b3a0f257bd653701bb77602205fc237c07ed412d2736f308248641b924267b55ffbff29837a747f4a624a07b2[ALL] 035ac64967a372275fd545195e896c7731da3b7e7276b68070cee3bdfb859bc987",
                        "hex": "473044022066100d84a3876453aa351a88f7b053a26ad9ad37da1b3a0f257bd653701bb77602205fc237c07ed412d2736f308248641b924267b55ffbff29837a747f4a624a07b20121035ac64967a372275fd545195e896c7731da3b7e7276b68070cee3bdfb859bc987"
                    },
                    "sequence": 4294967294,
                    "txid": "0401aa65f64d478bd76bd173692d2700e3d663b9ce058c301425b33e51bfa824",
                    "vout": 0
                }
            ],
            "vout": [
                {
                    "n": 0,
                    "scriptPubKey": {
                        "addresses": [
                            "DCph5UAnKXH96deErjpoqF6azfaoAEkgBc"
                            ],
                            "asm": "OP_DUP OP_HASH160 5445ef184e02ddc4d2cd3b28b2e7e1e31559163f OP_EQUALVERIFY OP_CHECKSIG",
                            "hex": "76a9145445ef184e02ddc4d2cd3b28b2e7e1e31559163f88ac",
                            "reqSigs": 1,
                            "type": "pubkeyhash"
                    },
                    "value": 240.60482796
                },
                {
                    "n": 1,
                    "scriptPubKey": {
                        "addresses": [
                            "DPGkbhgvBNZdLRxLKpcYe2rRnRWXCx7Bmw"
                            ],
                            "asm": "OP_DUP OP_HASH160 c6e4f23ac020e22bb307b829e95d6d516d83ae93 OP_EQUALVERIFY OP_CHECKSIG",
                            "hex": "76a914c6e4f23ac020e22bb307b829e95d6d516d83ae9388ac",
                            "reqSigs": 1,
                            "type": "pubkeyhash"
                    },
                    "value": 4966.32148037
                }
            ],
            "vsize": 1254,
            "weight": 5016
        }
    ],
    "version": 536871426,
    "versionHex": "20000202",
    "weight": 6216
}
