{
    "bits": "1a0f5b70",
    "chainwork": "0000000000000000000000000000000000000000000325c10693a5be02a14f4c",
    "confirmations": 12138,
    "difficulty": 1092450.728264153,
    "hash": "7d59abfdcc7b2a08286f50ec8d5988ff8f92d19fee9437d325b483d46fcad9f1",
    "height": 9468620,
    "mediantime": 1569089586,
    "merkleroot": "928cbe39196cbc7e16bf2346ad736f25b6267866be526c2d34a58caf85b7823d",
    "nTx": 1,
    "nextblockhash": "b8b181627f1095879f3cf8d8c72569a49b353a286cb635cc4f175502ec5b1b17",
    "nonce": 3658649701,
    "pow_algo": "qubit",
    "pow_algo_id": 4,
    "pow_hash": "000000000000079e1bd1f30d49454bb46acae392f9e8b85cc61a331afc2a63de",
    "previousblockhash": "45024093fe54d7fce8e2821e123cd7df0691c017ffc3574d37fdd453cf9937c4",
    "size": 289,
    "strippedsize": 253,
    "time": 1569089651,
    "tx": [
        {
            "hash": "4b1dc9b75c7152cbde7d97e2cba3db67c37cc87fae541f4e1eac39ea3f3525a0",
            "hex": "010000000001010000000000000000000000000000000000000000000000000000000000000000ffffffff2804cc7a9000047368865d080806c4d1480f0000142f70726f68617368696e672e636f6d40a306002f0000000002cd1576270f0000001976a914d83c560549b5b5e2fec5bfef8ad18764f631f64e88ac0000000000000000266a24aa21a9ede2f61c3f71d1defd3fa999dfa36953755c690689799962b48bebd836974e8cf90120000000000000000000000000000000000000000000000000000000000000000000000000",
            "locktime": 0,
            "size": 208,
            "txid": "928cbe39196cbc7e16bf2346ad736f25b6267866be526c2d34a58caf85b7823d",
            "version": 1,
            "vin": [
                {
                    "coinbase": "04cc7a9000047368865d080806c4d1480f0000142f70726f68617368696e672e636f6d40a306002f",
                    "sequence": 0
                }
            ],
            "vout": [
                {
                    "n": 0,
                    "scriptPubKey": {
                        "addresses": [
                            "DQrSmuxSS725tswdjLdSTvoVnnU5oybmC4"
                            ],
                            "asm": "OP_DUP OP_HASH160 d83c560549b5b5e2fec5bfef8ad18764f631f64e OP_EQUALVERIFY OP_CHECKSIG",
                            "hex": "76a914d83c560549b5b5e2fec5bfef8ad18764f631f64e88ac",
                            "reqSigs": 1,
                            "type": "pubkeyhash"
                    },
                    "value": 650.86559693
                },
                {
                    "n": 1,
                    "scriptPubKey": {
                        "asm": "OP_RETURN aa21a9ede2f61c3f71d1defd3fa999dfa36953755c690689799962b48bebd836974e8cf9",
                        "hex": "6a24aa21a9ede2f61c3f71d1defd3fa999dfa36953755c690689799962b48bebd836974e8cf9",
                        "type": "nulldata"
                    },
                    "value": 0.0
                }
            ],
            "vsize": 181,
            "weight": 724
        }
    ],
    "version": 536872962,
    "versionHex": "20000802",
    "weight": 1048
}
