{
    "bits": "1b012204",
    "chainwork": "0000000000000000000000000000000000000000000325c1103474bbb722fdcc",
    "confirmations": 12146,
    "difficulty": 57848.46937126233,
    "hash": "b8b181627f1095879f3cf8d8c72569a49b353a286cb635cc4f175502ec5b1b17",
    "height": 9468621,
    "mediantime": 1569089611,
    "merkleroot": "a69b45fe00cf7858851af2600fcbaed16b1b8383387075fc97aa862b55188e1f",
    "nTx": 1,
    "nextblockhash": "859aac2be20e42c3089404860cda05e04262e100ce4be78fa535df012dcab586",
    "nonce": 514288172,
    "pow_algo": "scrypt",
    "pow_algo_id": 1,
    "pow_hash": "00000000000107d9ae48922ea004a714b0555207e54ab6fa25f469d6eb6022d4",
    "previousblockhash": "7d59abfdcc7b2a08286f50ec8d5988ff8f92d19fee9437d325b483d46fcad9f1",
    "size": 333,
    "strippedsize": 297,
    "time": 1569089654,
    "tx": [
        {
            "hash": "1aea196d92c2059fe5d7348524b6de8b99eea7ba274d5c36ea7255e6c4192d1d",
            "hex": "010000000001010000000000000000000000000000000000000000000000000000000000000000ffffffff5404cd7a9000047668865dfabe6d6df0870dd5ad04f0c0c1a1938b6a856a840435b14bd2eecc941c48420cf93f549e10000000000000000818370e7e01000000142f70726f68617368696e672e636f6dc18032002f0000000002cd1576270f0000001976a914d83c560549b5b5e2fec5bfef8ad18764f631f64e88ac0000000000000000266a24aa21a9ede2f61c3f71d1defd3fa999dfa36953755c690689799962b48bebd836974e8cf90120000000000000000000000000000000000000000000000000000000000000000000000000",
            "locktime": 0,
            "size": 252,
            "txid": "a69b45fe00cf7858851af2600fcbaed16b1b8383387075fc97aa862b55188e1f",
            "version": 1,
            "vin": [
                {
                    "coinbase": "04cd7a9000047668865dfabe6d6df0870dd5ad04f0c0c1a1938b6a856a840435b14bd2eecc941c48420cf93f549e10000000000000000818370e7e01000000142f70726f68617368696e672e636f6dc18032002f",
                    "sequence": 0
                }
            ],
            "vout": [
                {
                    "n": 0,
                    "scriptPubKey": {
                        "addresses": [
                            "DQrSmuxSS725tswdjLdSTvoVnnU5oybmC4"
                            ],
                            "asm": "OP_DUP OP_HASH160 d83c560549b5b5e2fec5bfef8ad18764f631f64e OP_EQUALVERIFY OP_CHECKSIG",
                            "hex": "76a914d83c560549b5b5e2fec5bfef8ad18764f631f64e88ac",
                            "reqSigs": 1,
                            "type": "pubkeyhash"
                    },
                    "value": 650.86559693
                },
                {
                    "n": 1,
                    "scriptPubKey": {
                        "asm": "OP_RETURN aa21a9ede2f61c3f71d1defd3fa999dfa36953755c690689799962b48bebd836974e8cf9",
                        "hex": "6a24aa21a9ede2f61c3f71d1defd3fa999dfa36953755c690689799962b48bebd836974e8cf9",
                        "type": "nulldata"
                    },
                    "value": 0.0
                }
            ],
            "vsize": 225,
            "weight": 900
        }
    ],
    "version": 536870914,
    "versionHex": "20000002",
    "weight": 1224
}
