{
    "bits": "1a0db9ac",
    "chainwork": "0000000000000000000000000000000000000000000325c119c80abca75717cc",
    "confirmations": 12143,
    "difficulty": 1222340.022857143,
    "hash": "859aac2be20e42c3089404860cda05e04262e100ce4be78fa535df012dcab586",
    "height": 9468622,
    "mediantime": 1569089618,
    "merkleroot": "b9f0156d5230607251420a2ecc31f94169ad81e683640e776be5097a0073ad7c",
    "nTx": 1,
    "nextblockhash": "d0471f69b72eaf58eb154d5e5908c1b594d09c8e763f91963de969a636114919",
    "nonce": 2967891521,
    "pow_algo": "qubit",
    "pow_algo_id": 4,
    "pow_hash": "00000000000004c22726c71c8219477df9ca8a78dd22e573abd17e9f69ab93c8",
    "previousblockhash": "b8b181627f1095879f3cf8d8c72569a49b353a286cb635cc4f175502ec5b1b17",
    "size": 289,
    "strippedsize": 253,
    "time": 1569089660,
    "tx": [
        {
            "hash": "ed5348e4924492f7abb525ac7f8cbcb45991d7d9a127ecb5f7bb16e4afd2a67f",
            "hex": "010000000001010000000000000000000000000000000000000000000000000000000000000000ffffffff2804ce7a9000047c68865d086857b78921120000142f70726f68617368696e672e636f6d18b823002f0000000002cd1576270f0000001976a914d83c560549b5b5e2fec5bfef8ad18764f631f64e88ac0000000000000000266a24aa21a9ede2f61c3f71d1defd3fa999dfa36953755c690689799962b48bebd836974e8cf90120000000000000000000000000000000000000000000000000000000000000000000000000",
            "locktime": 0,
            "size": 208,
            "txid": "b9f0156d5230607251420a2ecc31f94169ad81e683640e776be5097a0073ad7c",
            "version": 1,
            "vin": [
                {
                    "coinbase": "04ce7a9000047c68865d086857b78921120000142f70726f68617368696e672e636f6d18b823002f",
                    "sequence": 0
                }
            ],
            "vout": [
                {
                    "n": 0,
                    "scriptPubKey": {
                        "addresses": [
                            "DQrSmuxSS725tswdjLdSTvoVnnU5oybmC4"
                            ],
                            "asm": "OP_DUP OP_HASH160 d83c560549b5b5e2fec5bfef8ad18764f631f64e OP_EQUALVERIFY OP_CHECKSIG",
                            "hex": "76a914d83c560549b5b5e2fec5bfef8ad18764f631f64e88ac",
                            "reqSigs": 1,
                            "type": "pubkeyhash"
                    },
                    "value": 650.86559693
                },
                {
                    "n": 1,
                    "scriptPubKey": {
                        "asm": "OP_RETURN aa21a9ede2f61c3f71d1defd3fa999dfa36953755c690689799962b48bebd836974e8cf9",
                        "hex": "6a24aa21a9ede2f61c3f71d1defd3fa999dfa36953755c690689799962b48bebd836974e8cf9",
                        "type": "nulldata"
                    },
                    "value": 0.0
                }
            ],
            "vsize": 181,
            "weight": 724
        }
    ],
    "version": 536872962,
    "versionHex": "20000802",
    "weight": 1048
}
