{
    "bits": "1b015260",
    "chainwork": "00000000000000000000000000000000000000000003080edcb08ef79bc16d4c",
    "confirmations": 8771,
    "difficulty": 49580.96786110085,
    "hash": "34f29a2a9e6cb40f66a5558186efba14ac48ff164bfa9f9227c140f6835833ce",
    "height": 9309131,
    "mediantime": 1566703627,
    "merkleroot": "35ff3b99ab94818092ee85e744bc0173cd678bf46d715fdfc006da45e7b0e86c",
    "nTx": 1,
    "nextblockhash": "2697c8463aa1f9e8076ac9545fcc7408ebfbc31d959ca68ecef9ce7b2b90d0ce",
    "nonce": 2025709956,
    "pow_algo": "scrypt",
    "pow_algo_id": 1,
    "pow_hash": "000000000000a8a4727818a1d2f42d86dea1f17bb406050d514a2ab86caf0f49",
    "previousblockhash": "ea3c60ab2d703d3923e9ba84e73b477da713f83c1bc903f509452e50a566bd2a",
    "size": 333,
    "strippedsize": 297,
    "time": 1566703672,
    "tx": [
        {
            "hash": "13335d1772967ce261f45ed2465bbbaac7cf53105edce7ad3a17b89b231210e9",
            "hex": "010000000001010000000000000000000000000000000000000000000000000000000000000000ffffffff5404cb0b8e00043900625dfabe6d6d4f6c26adec7515703e12fe4a3d28e4c096477b026e2a53a7b94f4cbc36d3e6251000000000000000086002b1d50d000000142f70726f68617368696e672e636f6d44ea06002f000000000267a33e530f0000001976a914d83c560549b5b5e2fec5bfef8ad18764f631f64e88ac0000000000000000266a24aa21a9ede2f61c3f71d1defd3fa999dfa36953755c690689799962b48bebd836974e8cf90120000000000000000000000000000000000000000000000000000000000000000000000000",
            "locktime": 0,
            "size": 252,
            "txid": "35ff3b99ab94818092ee85e744bc0173cd678bf46d715fdfc006da45e7b0e86c",
            "version": 1,
            "vin": [
                {
                    "coinbase": "04cb0b8e00043900625dfabe6d6d4f6c26adec7515703e12fe4a3d28e4c096477b026e2a53a7b94f4cbc36d3e6251000000000000000086002b1d50d000000142f70726f68617368696e672e636f6d44ea06002f",
                    "sequence": 0
                }
            ],
            "vout": [
                {
                    "n": 0,
                    "scriptPubKey": {
                        "addresses": [
                            "DQrSmuxSS725tswdjLdSTvoVnnU5oybmC4"
                            ],
                            "asm": "OP_DUP OP_HASH160 d83c560549b5b5e2fec5bfef8ad18764f631f64e OP_EQUALVERIFY OP_CHECKSIG",
                            "hex": "76a914d83c560549b5b5e2fec5bfef8ad18764f631f64e88ac",
                            "reqSigs": 1,
                            "type": "pubkeyhash"
                    },
                    "value": 658.21123431
                },
                {
                    "n": 1,
                    "scriptPubKey": {
                        "asm": "OP_RETURN aa21a9ede2f61c3f71d1defd3fa999dfa36953755c690689799962b48bebd836974e8cf9",
                        "hex": "6a24aa21a9ede2f61c3f71d1defd3fa999dfa36953755c690689799962b48bebd836974e8cf9",
                        "type": "nulldata"
                    },
                    "value": 0.0
                }
            ],
            "vsize": 225,
            "weight": 900
        }
    ],
    "version": 536870914,
    "versionHex": "20000002",
    "weight": 1224
}
