{
    "bits": "1a11eaff",
    "chainwork": "0000000000000000000000000000000000000000000325c0fcf8823fb3b7764c",
    "confirmations": 12138,
    "difficulty": 936321.2159373773,
    "hash": "45024093fe54d7fce8e2821e123cd7df0691c017ffc3574d37fdd453cf9937c4",
    "height": 9468619,
    "mediantime": 1569089581,
    "merkleroot": "2659ad0119b34e254ca1c4193ed9ac77ecd191df10aab8424eccb6cd28a62339",
    "nTx": 1,
    "nextblockhash": "7d59abfdcc7b2a08286f50ec8d5988ff8f92d19fee9437d325b483d46fcad9f1",
    "nonce": 2211938830,
    "pow_algo": "qubit",
    "pow_algo_id": 4,
    "pow_hash": "0000000000000473598478b7f51da0847102c53a363751281064de19c4fa582f",
    "previousblockhash": "000000000000000269defdc496e4e89f6c6d963ebfa6b0475674695a00ea467a",
    "size": 282,
    "strippedsize": 246,
    "time": 1569089641,
    "tx": [
        {
            "hash": "ef04eb19a90e4b86a93d7bfe013ca0dcff3edf429acde376e29c9cdf8065859d",
            "hex": "010000000001010000000000000000000000000000000000000000000000000000000000000000ffffffff2104cb7a9000046968865d0808096ede1b0000000d2f6e6f64655374726174756d2f00000000020000000000000000266a24aa21a9ede2f61c3f71d1defd3fa999dfa36953755c690689799962b48bebd836974e8cf9cd1576270f0000001976a914fec33cb6f5d6743cd576c7234bdae52ad51b78a988ac0120000000000000000000000000000000000000000000000000000000000000000000000000",
            "locktime": 0,
            "size": 201,
            "txid": "2659ad0119b34e254ca1c4193ed9ac77ecd191df10aab8424eccb6cd28a62339",
            "version": 1,
            "vin": [
                {
                    "coinbase": "04cb7a9000046968865d0808096ede1b0000000d2f6e6f64655374726174756d2f",
                    "sequence": 0
                }
            ],
            "vout": [
                {
                    "n": 0,
                    "scriptPubKey": {
                        "asm": "OP_RETURN aa21a9ede2f61c3f71d1defd3fa999dfa36953755c690689799962b48bebd836974e8cf9",
                        "hex": "6a24aa21a9ede2f61c3f71d1defd3fa999dfa36953755c690689799962b48bebd836974e8cf9",
                        "type": "nulldata"
                    },
                    "value": 0.0
                },
                {
                    "n": 1,
                    "scriptPubKey": {
                        "addresses": [
                            "DUNA4JKsAcGKSF6aQ4LT6XNq5ZsMs2Yq5x"
                            ],
                            "asm": "OP_DUP OP_HASH160 fec33cb6f5d6743cd576c7234bdae52ad51b78a9 OP_EQUALVERIFY OP_CHECKSIG",
                            "hex": "76a914fec33cb6f5d6743cd576c7234bdae52ad51b78a988ac",
                            "reqSigs": 1,
                            "type": "pubkeyhash"
                    },
                    "value": 650.86559693
                }
            ],
            "vsize": 174,
            "weight": 696
        }
    ],
    "version": 536872962,
    "versionHex": "20000802",
    "weight": 1020
}
