{
    "bits": "190c975e",
    "chainwork": "00000000000000000000000000000000000000000003080f090395213de16acc",
    "confirmations": 9184,
    "difficulty": 341101334.9095836,
    "hash": "000000000000000860691850b6d88ef0a3af024a90d684b579766c5247c4d714",
    "height": 9309136,
    "mediantime": 1566703672,
    "merkleroot": "526d3981f75855d29215f50f6bba95307e53c65100872c6c33b64c00a1878d0b",
    "nTx": 1,
    "nextblockhash": "95661dd7b4f7a772c3674962d38d9a49af05ac6a3d7c22af5250367d2dca95cc",
    "nonce": 2791467185,
    "pow_algo": "sha256d",
    "pow_algo_id": 0,
    "pow_hash": "000000000000000860691850b6d88ef0a3af024a90d684b579766c5247c4d714",
    "previousblockhash": "fd1cda4ae441f252e76d5fd0be7ca4d89eb5459de516fb80602751ee4adf6894",
    "size": 238,
    "strippedsize": 238,
    "time": 1566703710,
    "tx": [
        {
            "hash": "526d3981f75855d29215f50f6bba95307e53c65100872c6c33b64c00a1878d0b",
            "hex": "02000000010000000000000000000000000000000000000000000000000000000000000000ffffffff4804d00b8e00045e00625d088100069fbe270000576172704861736800fabe6d6dd1b663a7a2fa190446d5f0c5d0ee9a55e8261ebfdacbe4ed1f89c6813515309b1000000000000000000000000167a33e530f0000001976a914a7d8479c4a60307c84c73f34bd0940071c25da6188ac00000000",
            "locktime": 0,
            "size": 157,
            "txid": "526d3981f75855d29215f50f6bba95307e53c65100872c6c33b64c00a1878d0b",
            "version": 2,
            "vin": [
                {
                    "coinbase": "04d00b8e00045e00625d088100069fbe270000576172704861736800fabe6d6dd1b663a7a2fa190446d5f0c5d0ee9a55e8261ebfdacbe4ed1f89c6813515309b1000000000000000",
                    "sequence": 0
                }
            ],
            "vout": [
                {
                    "n": 0,
                    "scriptPubKey": {
                        "addresses": [
                            "DLSaUfzawXf67m3KaHKznP8Zg3fJgvs2ME"
                            ],
                            "asm": "OP_DUP OP_HASH160 a7d8479c4a60307c84c73f34bd0940071c25da61 OP_EQUALVERIFY OP_CHECKSIG",
                            "hex": "76a914a7d8479c4a60307c84c73f34bd0940071c25da6188ac",
                            "reqSigs": 1,
                            "type": "pubkeyhash"
                    },
                    "value": 658.21123431
                }
            ],
            "vsize": 157,
            "weight": 628
        }
    ],
    "version": 536871426,
    "versionHex": "20000202",
    "weight": 952
}
