{

    "bits": "1b013d6f",
    "chainwork": "00000000000000000000000000000000000000000003080ef7630791a4651ecc",
    "confirmations": 8940,
    "difficulty": 52851.87305415749,
    "hash": "34638d72ba5903aa7fb25ac6420c732eee82318639f6dc67bb79b450a1aec10c",
    "height": 9309134,
    "mediantime": 1566703663,
    "merkleroot": "ab037d12173abc46f653a9f449da6aaf6522106e7ad11a4025128443fa5e5917",
    "nTx": 1,
    "nextblockhash": "fd1cda4ae441f252e76d5fd0be7ca4d89eb5459de516fb80602751ee4adf6894",
    "nonce": 892741418,
    "pow_algo": "scrypt",
    "pow_algo_id": 1,
    "pow_hash": "000000000000f4aa2a5e94987112994e0e3f3a6695c974bdd0d473d78ff3c073",
    "previousblockhash": "000000000000000148a8c7a2b7957a2f7be2d952b333a0a154d76905947ff689",
    "size": 333,
    "strippedsize": 297,
    "time": 1566703695,
    "tx": [
        {
            "hash": "ddeab2ede059c926e27834d75cecb5729b0492c3c28feaa86ce54499b32dafdd",
            "hex": "010000000001010000000000000000000000000000000000000000000000000000000000000000ffffffff5404ce0b8e00045100625dfabe6d6de636e65e604dbb0dd0525ff6e79bc6ecc931e2876fbb3ddd68be47b1bba791df100000000000000008600802d701000000142f70726f68617368696e672e636f6d62ea06002f000000000267a33e530f0000001976a914d83c560549b5b5e2fec5bfef8ad18764f631f64e88ac0000000000000000266a24aa21a9ede2f61c3f71d1defd3fa999dfa36953755c690689799962b48bebd836974e8cf90120000000000000000000000000000000000000000000000000000000000000000000000000",
            "locktime": 0,
            "size": 252,
            "txid": "ab037d12173abc46f653a9f449da6aaf6522106e7ad11a4025128443fa5e5917",
            "version": 1,
            "vin": [
                {
                    "coinbase": "04ce0b8e00045100625dfabe6d6de636e65e604dbb0dd0525ff6e79bc6ecc931e2876fbb3ddd68be47b1bba791df100000000000000008600802d701000000142f70726f68617368696e672e636f6d62ea06002f",
                    "sequence": 0
                }
            ],
            "vout": [
                {
                    "n": 0,
                    "scriptPubKey": {
                        "addresses": [
                            "DQrSmuxSS725tswdjLdSTvoVnnU5oybmC4"
                            ],
                            "asm": "OP_DUP OP_HASH160 d83c560549b5b5e2fec5bfef8ad18764f631f64e OP_EQUALVERIFY OP_CHECKSIG",
                            "hex": "76a914d83c560549b5b5e2fec5bfef8ad18764f631f64e88ac",
                            "reqSigs": 1,
                            "type": "pubkeyhash"
                    },
                    "value": 658.21123431
                },
                {
                    "n": 1,
                    "scriptPubKey": {
                        "asm": "OP_RETURN aa21a9ede2f61c3f71d1defd3fa999dfa36953755c690689799962b48bebd836974e8cf9",
                        "hex": "6a24aa21a9ede2f61c3f71d1defd3fa999dfa36953755c690689799962b48bebd836974e8cf9",
                        "type": "nulldata"
                    },
                    "value": 0.0
                }
            ],
            "vsize": 225,
            "weight": 900
        }
    ],
    "version": 536870914,
    "versionHex": "20000002",
    "weight": 1224
}
