{
    "bits": "1b00e4c7",
    "chainwork": "00000000000000000000000000000000000000000003080ee59ceefbf8e0974c",
    "confirmations": 9130,
    "difficulty": 73333.13572489627,
    "hash": "2697c8463aa1f9e8076ac9545fcc7408ebfbc31d959ca68ecef9ce7b2b90d0ce",
    "height": 9309132,
    "mediantime": 1566703631,
    "merkleroot": "b92b91963b5c1012188c33f220713ced7dd8465c43e5683c3fb0ad261eaa4b4a",
    "nTx": 1,
    "nextblockhash": "000000000000000148a8c7a2b7957a2f7be2d952b333a0a154d76905947ff689",
    "nonce": 161773314,
    "pow_algo": "odo",
    "pow_algo_id": 7,
    "pow_hash": "00000000000006b2d77f784f6865a89f9140c8dbc4ac22f43cac2292c3ecf3ed",
    "previousblockhash": "34f29a2a9e6cb40f66a5558186efba14ac48ff164bfa9f9227c140f6835833ce",
    "size": 198,
    "strippedsize": 198,
    "time": 1566703690,
    "tx": [
        {
            "hash": "b92b91963b5c1012188c33f220713ced7dd8465c43e5683c3fb0ad261eaa4b4a",
            "hex": "02000000010000000000000000000000000000000000000000000000000000000000000000ffffffff2004cc0b8e00044a00625d088102fb75140000007a657267706f6f6c2e636f6d00000000000167a33e530f0000001976a9140df4d6e39218f93220c4e4eae89320fc8dbe653a88ac00000000",
            "locktime": 0,
            "size": 117,
            "txid": "b92b91963b5c1012188c33f220713ced7dd8465c43e5683c3fb0ad261eaa4b4a",
            "version": 2,
            "vin": [
                {
                    "coinbase": "04cc0b8e00044a00625d088102fb75140000007a657267706f6f6c2e636f6d00",
                    "sequence": 0
                }
            ],
            "vout": [
                {
                    "n": 0,
                    "scriptPubKey": {
                        "addresses": [
                            "D6QtdVXcL8amysLKwH8aD6kZyxhoWVpLrj"
                            ],
                            "asm": "OP_DUP OP_HASH160 0df4d6e39218f93220c4e4eae89320fc8dbe653a OP_EQUALVERIFY OP_CHECKSIG",
                            "hex": "76a9140df4d6e39218f93220c4e4eae89320fc8dbe653a88ac",
                            "reqSigs": 1,
                            "type": "pubkeyhash"
                    },
                    "value": 658.21123431
                }
            ],
            "vsize": 117,
            "weight": 468
        }
    ],
    "version": 536874498,
    "versionHex": "20000e02",
    "weight": 792
}
